{
  "_format": "hh-sol-artifact-1",
  "contractName": "Land",
  "sourceName": "contracts/Land.sol",
  "abi": [
    {
      "inputs": [
        {
          "internalType": "string",
          "name": "_name",
          "type": "string"
        },
        {
          "internalType": "string",
          "name": "_symbol",
          "type": "string"
        },
        {
          "internalType": "uint256",
          "name": "_cost",
          "type": "uint256"
        }
      ],
      "stateMutability": "nonpayable",
      "type": "constructor"
    },
    {
      "anonymous": false,
      "inputs": [
        {
          "indexed": true,
          "internalType": "address",
          "name": "owner",
          "type": "address"
        },
        {
          "indexed": true,
          "internalType": "address",
          "name": "approved",
          "type": "address"
        },
        {
          "indexed": true,
          "internalType": "uint256",
          "name": "tokenId",
          "type": "uint256"
        }
      ],
      "name": "Approval",
      "type": "event"
    },
    {
      "anonymous": false,
      "inputs": [
        {
          "indexed": true,
          "internalType": "address",
          "name": "owner",
          "type": "address"
        },
        {
          "indexed": true,
          "internalType": "address",
          "name": "operator",
          "type": "address"
        },
        {
          "indexed": false,
          "internalType": "bool",
          "name": "approved",
          "type": "bool"
        }
      ],
      "name": "ApprovalForAll",
      "type": "event"
    },
    {
      "anonymous": false,
      "inputs": [
        {
          "indexed": true,
          "internalType": "address",
          "name": "from",
          "type": "address"
        },
        {
          "indexed": true,
          "internalType": "address",
          "name": "to",
          "type": "address"
        },
        {
          "indexed": true,
          "internalType": "uint256",
          "name": "tokenId",
          "type": "uint256"
        }
      ],
      "name": "Transfer",
      "type": "event"
    },
    {
      "inputs": [
        {
          "internalType": "address",
          "name": "to",
          "type": "address"
        },
        {
          "internalType": "uint256",
          "name": "tokenId",
          "type": "uint256"
        }
      ],
      "name": "approve",
      "outputs": [],
      "stateMutability": "nonpayable",
      "type": "function"
    },
    {
      "inputs": [
        {
          "internalType": "address",
          "name": "owner",
          "type": "address"
        }
      ],
      "name": "balanceOf",
      "outputs": [
        {
          "internalType": "uint256",
          "name": "",
          "type": "uint256"
        }
      ],
      "stateMutability": "view",
      "type": "function"
    },
    {
      "inputs": [
        {
          "internalType": "uint256",
          "name": "",
          "type": "uint256"
        }
      ],
      "name": "buildings",
      "outputs": [
        {
          "internalType": "string",
          "name": "name",
          "type": "string"
        },
        {
          "internalType": "address",
          "name": "owner",
          "type": "address"
        },
        {
          "internalType": "int256",
          "name": "posX",
          "type": "int256"
        },
        {
          "internalType": "int256",
          "name": "posY",
          "type": "int256"
        },
        {
          "internalType": "int256",
          "name": "posZ",
          "type": "int256"
        },
        {
          "internalType": "uint256",
          "name": "sizeX",
          "type": "uint256"
        },
        {
          "internalType": "uint256",
          "name": "sizeY",
          "type": "uint256"
        },
        {
          "internalType": "uint256",
          "name": "sizeZ",
          "type": "uint256"
        }
      ],
      "stateMutability": "view",
      "type": "function"
    },
    {
      "inputs": [],
      "name": "cost",
      "outputs": [
        {
          "internalType": "uint256",
          "name": "",
          "type": "uint256"
        }
      ],
      "stateMutability": "view",
      "type": "function"
    },
    {
      "inputs": [
        {
          "internalType": "uint256",
          "name": "tokenId",
          "type": "uint256"
        }
      ],
      "name": "getApproved",
      "outputs": [
        {
          "internalType": "address",
          "name": "",
          "type": "address"
        }
      ],
      "stateMutability": "view",
      "type": "function"
    },
    {
      "inputs": [
        {
          "internalType": "uint256",
          "name": "_id",
          "type": "uint256"
        }
      ],
      "name": "getBuilding",
      "outputs": [
        {
          "components": [
            {
              "internalType": "string",
              "name": "name",
              "type": "string"
            },
            {
              "internalType": "address",
              "name": "owner",
              "type": "address"
            },
            {
              "internalType": "int256",
              "name": "posX",
              "type": "int256"
            },
            {
              "internalType": "int256",
              "name": "posY",
              "type": "int256"
            },
            {
              "internalType": "int256",
              "name": "posZ",
              "type": "int256"
            },
            {
              "internalType": "uint256",
              "name": "sizeX",
              "type": "uint256"
            },
            {
              "internalType": "uint256",
              "name": "sizeY",
              "type": "uint256"
            },
            {
              "internalType": "uint256",
              "name": "sizeZ",
              "type": "uint256"
            }
          ],
          "internalType": "struct Land.Building",
          "name": "",
          "type": "tuple"
        }
      ],
      "stateMutability": "view",
      "type": "function"
    },
    {
      "inputs": [],
      "name": "getBuildings",
      "outputs": [
        {
          "components": [
            {
              "internalType": "string",
              "name": "name",
              "type": "string"
            },
            {
              "internalType": "address",
              "name": "owner",
              "type": "address"
            },
            {
              "internalType": "int256",
              "name": "posX",
              "type": "int256"
            },
            {
              "internalType": "int256",
              "name": "posY",
              "type": "int256"
            },
            {
              "internalType": "int256",
              "name": "posZ",
              "type": "int256"
            },
            {
              "internalType": "uint256",
              "name": "sizeX",
              "type": "uint256"
            },
            {
              "internalType": "uint256",
              "name": "sizeY",
              "type": "uint256"
            },
            {
              "internalType": "uint256",
              "name": "sizeZ",
              "type": "uint256"
            }
          ],
          "internalType": "struct Land.Building[]",
          "name": "",
          "type": "tuple[]"
        }
      ],
      "stateMutability": "view",
      "type": "function"
    },
    {
      "inputs": [
        {
          "internalType": "address",
          "name": "owner",
          "type": "address"
        },
        {
          "internalType": "address",
          "name": "operator",
          "type": "address"
        }
      ],
      "name": "isApprovedForAll",
      "outputs": [
        {
          "internalType": "bool",
          "name": "",
          "type": "bool"
        }
      ],
      "stateMutability": "view",
      "type": "function"
    },
    {
      "inputs": [],
      "name": "maxSupply",
      "outputs": [
        {
          "internalType": "uint256",
          "name": "",
          "type": "uint256"
        }
      ],
      "stateMutability": "view",
      "type": "function"
    },
    {
      "inputs": [
        {
          "internalType": "uint256",
          "name": "_id",
          "type": "uint256"
        }
      ],
      "name": "mint",
      "outputs": [],
      "stateMutability": "payable",
      "type": "function"
    },
    {
      "inputs": [],
      "name": "name",
      "outputs": [
        {
          "internalType": "string",
          "name": "",
          "type": "string"
        }
      ],
      "stateMutability": "view",
      "type": "function"
    },
    {
      "inputs": [
        {
          "internalType": "uint256",
          "name": "tokenId",
          "type": "uint256"
        }
      ],
      "name": "ownerOf",
      "outputs": [
        {
          "internalType": "address",
          "name": "",
          "type": "address"
        }
      ],
      "stateMutability": "view",
      "type": "function"
    },
    {
      "inputs": [
        {
          "internalType": "address",
          "name": "from",
          "type": "address"
        },
        {
          "internalType": "address",
          "name": "to",
          "type": "address"
        },
        {
          "internalType": "uint256",
          "name": "tokenId",
          "type": "uint256"
        }
      ],
      "name": "safeTransferFrom",
      "outputs": [],
      "stateMutability": "nonpayable",
      "type": "function"
    },
    {
      "inputs": [
        {
          "internalType": "address",
          "name": "from",
          "type": "address"
        },
        {
          "internalType": "address",
          "name": "to",
          "type": "address"
        },
        {
          "internalType": "uint256",
          "name": "tokenId",
          "type": "uint256"
        },
        {
          "internalType": "bytes",
          "name": "data",
          "type": "bytes"
        }
      ],
      "name": "safeTransferFrom",
      "outputs": [],
      "stateMutability": "nonpayable",
      "type": "function"
    },
    {
      "inputs": [
        {
          "internalType": "address",
          "name": "operator",
          "type": "address"
        },
        {
          "internalType": "bool",
          "name": "approved",
          "type": "bool"
        }
      ],
      "name": "setApprovalForAll",
      "outputs": [],
      "stateMutability": "nonpayable",
      "type": "function"
    },
    {
      "inputs": [
        {
          "internalType": "bytes4",
          "name": "interfaceId",
          "type": "bytes4"
        }
      ],
      "name": "supportsInterface",
      "outputs": [
        {
          "internalType": "bool",
          "name": "",
          "type": "bool"
        }
      ],
      "stateMutability": "view",
      "type": "function"
    },
    {
      "inputs": [],
      "name": "symbol",
      "outputs": [
        {
          "internalType": "string",
          "name": "",
          "type": "string"
        }
      ],
      "stateMutability": "view",
      "type": "function"
    },
    {
      "inputs": [
        {
          "internalType": "uint256",
          "name": "tokenId",
          "type": "uint256"
        }
      ],
      "name": "tokenURI",
      "outputs": [
        {
          "internalType": "string",
          "name": "",
          "type": "string"
        }
      ],
      "stateMutability": "view",
      "type": "function"
    },
    {
      "inputs": [],
      "name": "totalSupply",
      "outputs": [
        {
          "internalType": "uint256",
          "name": "",
          "type": "uint256"
        }
      ],
      "stateMutability": "view",
      "type": "function"
    },
    {
      "inputs": [
        {
          "internalType": "address",
          "name": "from",
          "type": "address"
        },
        {
          "internalType": "address",
          "name": "to",
          "type": "address"
        },
        {
          "internalType": "uint256",
          "name": "tokenId",
          "type": "uint256"
        }
      ],
      "name": "transferFrom",
      "outputs": [],
      "stateMutability": "nonpayable",
      "type": "function"
    }
  ],
  "bytecode": "0x6080604052670de0b6b3a7640000600655600560075560006008553480156200002757600080fd5b5060405162003db838038062003db883398181016040528101906200004d919062000935565b8282816000908162000060919062000c10565b50806001908162000072919062000c10565b5050508060068190555060096040518061010001604052806040518060400160405280600981526020017f436974792048616c6c00000000000000000000000000000000000000000000008152508152602001600073ffffffffffffffffffffffffffffffffffffffff168152602001600081526020016000815260200160008152602001600a8152602001600a8152602001600a815250908060018154018082558091505060019003906000526020600020906008020160009091909190915060008201518160000190816200014a919062000c10565b5060208201518160010160006101000a81548173ffffffffffffffffffffffffffffffffffffffff021916908373ffffffffffffffffffffffffffffffffffffffff16021790555060408201518160020155606082015181600301556080820151816004015560a0820151816005015560c0820151816006015560e08201518160070155505060096040518061010001604052806040518060400160405280600781526020017f5374616469756d000000000000000000000000000000000000000000000000008152508152602001600073ffffffffffffffffffffffffffffffffffffffff16815260200160008152602001600a815260200160008152602001600a8152602001600581526020016003815250908060018154018082558091505060019003906000526020600020906008020160009091909190915060008201518160000190816200029e919062000c10565b5060208201518160010160006101000a81548173ffffffffffffffffffffffffffffffffffffffff021916908373ffffffffffffffffffffffffffffffffffffffff16021790555060408201518160020155606082015181600301556080820151816004015560a0820151816005015560c0820151816006015560e08201518160070155505060096040518061010001604052806040518060400160405280600a81526020017f556e6976657273697479000000000000000000000000000000000000000000008152508152602001600073ffffffffffffffffffffffffffffffffffffffff168152602001600081526020017ffffffffffffffffffffffffffffffffffffffffffffffffffffffffffffffff6815260200160008152602001600a81526020016005815260200160038152509080600181540180825580915050600190039060005260206000209060080201600090919091909150600082015181600001908162000411919062000c10565b5060208201518160010160006101000a81548173ffffffffffffffffffffffffffffffffffffffff021916908373ffffffffffffffffffffffffffffffffffffffff16021790555060408201518160020155606082015181600301556080820151816004015560a0820151816005015560c0820151816006015560e08201518160070155505060096040518061010001604052806040518060400160405280600e81526020017f53686f7070696e6720506c617a610000000000000000000000000000000000008152508152602001600073ffffffffffffffffffffffffffffffffffffffff168152602001600a81526020016000815260200160008152602001600581526020016019815260200160058152509080600181540180825580915050600190039060005260206000209060080201600090919091909150600082015181600001908162000565919062000c10565b5060208201518160010160006101000a81548173ffffffffffffffffffffffffffffffffffffffff021916908373ffffffffffffffffffffffffffffffffffffffff16021790555060408201518160020155606082015181600301556080820151816004015560a0820151816005015560c0820151816006015560e08201518160070155505060096040518061010001604052806040518060400160405280600f81526020017f5261696c7761792053746174696f6e00000000000000000000000000000000008152508152602001600073ffffffffffffffffffffffffffffffffffffffff1681526020017ffffffffffffffffffffffffffffffffffffffffffffffffffffffffffffffff6815260200160008152602001600081526020016005815260200160198152602001600581525090806001815401808255809150506001900390600052602060002090600802016000909190919091506000820151816000019081620006d8919062000c10565b5060208201518160010160006101000a81548173ffffffffffffffffffffffffffffffffffffffff021916908373ffffffffffffffffffffffffffffffffffffffff16021790555060408201518160020155606082015181600301556080820151816004015560a0820151816005015560c0820151816006015560e08201518160070155505050505062000cf7565b6000604051905090565b600080fd5b600080fd5b600080fd5b600080fd5b6000601f19601f8301169050919050565b7f4e487b7100000000000000000000000000000000000000000000000000000000600052604160045260246000fd5b620007d08262000785565b810181811067ffffffffffffffff82111715620007f257620007f162000796565b5b80604052505050565b60006200080762000767565b9050620008158282620007c5565b919050565b600067ffffffffffffffff82111562000838576200083762000796565b5b620008438262000785565b9050602081019050919050565b60005b838110156200087057808201518184015260208101905062000853565b60008484015250505050565b6000620008936200088d846200081a565b620007fb565b905082815260208101848484011115620008b257620008b162000780565b5b620008bf84828562000850565b509392505050565b600082601f830112620008df57620008de6200077b565b5b8151620008f18482602086016200087c565b91505092915050565b6000819050919050565b6200090f81620008fa565b81146200091b57600080fd5b50565b6000815190506200092f8162000904565b92915050565b60008060006060848603121562000951576200095062000771565b5b600084015167ffffffffffffffff81111562000972576200097162000776565b5b6200098086828701620008c7565b935050602084015167ffffffffffffffff811115620009a457620009a362000776565b5b620009b286828701620008c7565b9250506040620009c5868287016200091e565b9150509250925092565b600081519050919050565b7f4e487b7100000000000000000000000000000000000000000000000000000000600052602260045260246000fd5b6000600282049050600182168062000a2257607f821691505b60208210810362000a385762000a37620009da565b5b50919050565b60008190508160005260206000209050919050565b60006020601f8301049050919050565b600082821b905092915050565b60006008830262000aa27fffffffffffffffffffffffffffffffffffffffffffffffffffffffffffffffff8262000a63565b62000aae868362000a63565b95508019841693508086168417925050509392505050565b6000819050919050565b600062000af162000aeb62000ae584620008fa565b62000ac6565b620008fa565b9050919050565b6000819050919050565b62000b0d8362000ad0565b62000b2562000b1c8262000af8565b84845462000a70565b825550505050565b600090565b62000b3c62000b2d565b62000b4981848462000b02565b505050565b5b8181101562000b715762000b6560008262000b32565b60018101905062000b4f565b5050565b601f82111562000bc05762000b8a8162000a3e565b62000b958462000a53565b8101602085101562000ba5578190505b62000bbd62000bb48562000a53565b83018262000b4e565b50505b505050565b600082821c905092915050565b600062000be56000198460080262000bc5565b1980831691505092915050565b600062000c00838362000bd2565b9150826002028217905092915050565b62000c1b82620009cf565b67ffffffffffffffff81111562000c375762000c3662000796565b5b62000c43825462000a09565b62000c5082828562000b75565b600060209050601f83116001811462000c88576000841562000c73578287015190505b62000c7f858262000bf2565b86555062000cef565b601f19841662000c988662000a3e565b60005b8281101562000cc25784890151825560018201915060208501945060208101905062000c9b565b8683101562000ce2578489015162000cde601f89168262000bd2565b8355505b6001600288020188555050505b505050505050565b6130b18062000d076000396000f3fe60806040526004361061011f5760003560e01c806370a08231116100a0578063b88d4fde11610064578063b88d4fde14610405578063c87b56dd1461042e578063d5abeb011461046b578063d9cf6a2614610496578063e985e9c5146104c15761011f565b806370a082311461031b57806395d89b41146103585780639dfd8b0214610383578063a0712d68146103c0578063a22cb465146103dc5761011f565b806318160ddd116100e757806318160ddd1461021d57806323b872dd1461024857806342842e0e146102715780634c96a0621461029a5780636352211e146102de5761011f565b806301ffc9a71461012457806306fdde0314610161578063081812fc1461018c578063095ea7b3146101c957806313faede6146101f2575b600080fd5b34801561013057600080fd5b5061014b60048036038101906101469190611f6c565b6104fe565b6040516101589190611fb4565b60405180910390f35b34801561016d57600080fd5b506101766105e0565b604051610183919061205f565b60405180910390f35b34801561019857600080fd5b506101b360048036038101906101ae91906120b7565b610672565b6040516101c09190612125565b60405180910390f35b3480156101d557600080fd5b506101f060048036038101906101eb919061216c565b6106b8565b005b3480156101fe57600080fd5b506102076107cf565b60405161021491906121bb565b60405180910390f35b34801561022957600080fd5b506102326107d5565b60405161023f91906121bb565b60405180910390f35b34801561025457600080fd5b5061026f600480360381019061026a91906121d6565b6107db565b005b34801561027d57600080fd5b50610298600480360381019061029391906121d6565b61083b565b005b3480156102a657600080fd5b506102c160048036038101906102bc91906120b7565b61085b565b6040516102d5989796959493929190612242565b60405180910390f35b3480156102ea57600080fd5b50610305600480360381019061030091906120b7565b61095b565b6040516103129190612125565b60405180910390f35b34801561032757600080fd5b50610342600480360381019061033d91906122c7565b6109e1565b60405161034f91906121bb565b60405180910390f35b34801561036457600080fd5b5061036d610a98565b60405161037a919061205f565b60405180910390f35b34801561038f57600080fd5b506103aa60048036038101906103a591906120b7565b610b2a565b6040516103b7919061241b565b60405180910390f35b6103da60048036038101906103d591906120b7565b610c97565b005b3480156103e857600080fd5b5061040360048036038101906103fe9190612469565b610dd9565b005b34801561041157600080fd5b5061042c600480360381019061042791906125de565b610def565b005b34801561043a57600080fd5b50610455600480360381019061045091906120b7565b610e51565b604051610462919061205f565b60405180910390f35b34801561047757600080fd5b50610480610eb9565b60405161048d91906121bb565b60405180910390f35b3480156104a257600080fd5b506104ab610ebf565b6040516104b891906127d3565b60405180910390f35b3480156104cd57600080fd5b506104e860048036038101906104e391906127f5565b611043565b6040516104f59190611fb4565b60405180910390f35b60007f80ac58cd000000000000000000000000000000000000000000000000000000007bffffffffffffffffffffffffffffffffffffffffffffffffffffffff1916827bffffffffffffffffffffffffffffffffffffffffffffffffffffffff191614806105c957507f5b5e139f000000000000000000000000000000000000000000000000000000007bffffffffffffffffffffffffffffffffffffffffffffffffffffffff1916827bffffffffffffffffffffffffffffffffffffffffffffffffffffffff1916145b806105d957506105d8826110d7565b5b9050919050565b6060600080546105ef90612864565b80601f016020809104026020016040519081016040528092919081815260200182805461061b90612864565b80156106685780601f1061063d57610100808354040283529160200191610668565b820191906000526020600020905b81548152906001019060200180831161064b57829003601f168201915b5050505050905090565b600061067d82611141565b6004600083815260200190815260200160002060009054906101000a900473ffffffffffffffffffffffffffffffffffffffff169050919050565b60006106c38261095b565b90508073ffffffffffffffffffffffffffffffffffffffff168373ffffffffffffffffffffffffffffffffffffffff1603610733576040517f08c379a000000000000000000000000000000000000000000000000000000000815260040161072a90612907565b60405180910390fd5b8073ffffffffffffffffffffffffffffffffffffffff1661075261118c565b73ffffffffffffffffffffffffffffffffffffffff16148061078157506107808161077b61118c565b611043565b5b6107c0576040517f08c379a00000000000000000000000000000000000000000000000000000000081526004016107b790612999565b60405180910390fd5b6107ca8383611194565b505050565b60065481565b60085481565b6107ec6107e661118c565b8261124d565b61082b576040517f08c379a000000000000000000000000000000000000000000000000000000000815260040161082290612a2b565b60405180910390fd5b6108368383836112e2565b505050565b61085683838360405180602001604052806000815250610def565b505050565b6009818154811061086b57600080fd5b906000526020600020906008020160009150905080600001805461088e90612864565b80601f01602080910402602001604051908101604052809291908181526020018280546108ba90612864565b80156109075780601f106108dc57610100808354040283529160200191610907565b820191906000526020600020905b8154815290600101906020018083116108ea57829003601f168201915b5050505050908060010160009054906101000a900473ffffffffffffffffffffffffffffffffffffffff16908060020154908060030154908060040154908060050154908060060154908060070154905088565b600080610967836115db565b9050600073ffffffffffffffffffffffffffffffffffffffff168173ffffffffffffffffffffffffffffffffffffffff16036109d8576040517f08c379a00000000000000000000000000000000000000000000000000000000081526004016109cf90612a97565b60405180910390fd5b80915050919050565b60008073ffffffffffffffffffffffffffffffffffffffff168273ffffffffffffffffffffffffffffffffffffffff1603610a51576040517f08c379a0000000000000000000000000000000000000000000000000000000008152600401610a4890612b29565b60405180910390fd5b600360008373ffffffffffffffffffffffffffffffffffffffff1673ffffffffffffffffffffffffffffffffffffffff168152602001908152602001600020549050919050565b606060018054610aa790612864565b80601f0160208091040260200160405190810160405280929190818152602001828054610ad390612864565b8015610b205780601f10610af557610100808354040283529160200191610b20565b820191906000526020600020905b815481529060010190602001808311610b0357829003601f168201915b5050505050905090565b610b32611ea5565b6009600183610b419190612b78565b81548110610b5257610b51612bac565b5b906000526020600020906008020160405180610100016040529081600082018054610b7c90612864565b80601f0160208091040260200160405190810160405280929190818152602001828054610ba890612864565b8015610bf55780601f10610bca57610100808354040283529160200191610bf5565b820191906000526020600020905b815481529060010190602001808311610bd857829003601f168201915b505050505081526020016001820160009054906101000a900473ffffffffffffffffffffffffffffffffffffffff1673ffffffffffffffffffffffffffffffffffffffff1673ffffffffffffffffffffffffffffffffffffffff16815260200160028201548152602001600382015481526020016004820154815260200160058201548152602001600682015481526020016007820154815250509050919050565b60006008549050600754811115610cad57600080fd5b600073ffffffffffffffffffffffffffffffffffffffff166009600184610cd49190612b78565b81548110610ce557610ce4612bac565b5b906000526020600020906008020160010160009054906101000a900473ffffffffffffffffffffffffffffffffffffffff1673ffffffffffffffffffffffffffffffffffffffff1614610d3757600080fd5b600654341015610d4657600080fd5b336009600184610d569190612b78565b81548110610d6757610d66612bac565b5b906000526020600020906008020160010160006101000a81548173ffffffffffffffffffffffffffffffffffffffff021916908373ffffffffffffffffffffffffffffffffffffffff1602179055506001600854610dc59190612bdb565b600881905550610dd53383611618565b5050565b610deb610de461118c565b8383611636565b5050565b610e00610dfa61118c565b8361124d565b610e3f576040517f08c379a0000000000000000000000000000000000000000000000000000000008152600401610e3690612a2b565b60405180910390fd5b610e4b848484846117a2565b50505050565b6060610e5c82611141565b6000610e666117fe565b90506000815111610e865760405180602001604052806000815250610eb1565b80610e9084611815565b604051602001610ea1929190612c4b565b6040516020818303038152906040525b915050919050565b60075481565b60606009805480602002602001604051908101604052809291908181526020016000905b8282101561103a578382906000526020600020906008020160405180610100016040529081600082018054610f1790612864565b80601f0160208091040260200160405190810160405280929190818152602001828054610f4390612864565b8015610f905780601f10610f6557610100808354040283529160200191610f90565b820191906000526020600020905b815481529060010190602001808311610f7357829003601f168201915b505050505081526020016001820160009054906101000a900473ffffffffffffffffffffffffffffffffffffffff1673ffffffffffffffffffffffffffffffffffffffff1673ffffffffffffffffffffffffffffffffffffffff168152602001600282015481526020016003820154815260200160048201548152602001600582015481526020016006820154815260200160078201548152505081526020019060010190610ee3565b50505050905090565b6000600560008473ffffffffffffffffffffffffffffffffffffffff1673ffffffffffffffffffffffffffffffffffffffff16815260200190815260200160002060008373ffffffffffffffffffffffffffffffffffffffff1673ffffffffffffffffffffffffffffffffffffffff16815260200190815260200160002060009054906101000a900460ff16905092915050565b60007f01ffc9a7000000000000000000000000000000000000000000000000000000007bffffffffffffffffffffffffffffffffffffffffffffffffffffffff1916827bffffffffffffffffffffffffffffffffffffffffffffffffffffffff1916149050919050565b61114a816118e3565b611189576040517f08c379a000000000000000000000000000000000000000000000000000000000815260040161118090612a97565b60405180910390fd5b50565b600033905090565b816004600083815260200190815260200160002060006101000a81548173ffffffffffffffffffffffffffffffffffffffff021916908373ffffffffffffffffffffffffffffffffffffffff160217905550808273ffffffffffffffffffffffffffffffffffffffff166112078361095b565b73ffffffffffffffffffffffffffffffffffffffff167f8c5be1e5ebec7d5bd14f71427d1e84f3dd0314c0f7b2291e5b200ac8c7c3b92560405160405180910390a45050565b6000806112598361095b565b90508073ffffffffffffffffffffffffffffffffffffffff168473ffffffffffffffffffffffffffffffffffffffff16148061129b575061129a8185611043565b5b806112d957508373ffffffffffffffffffffffffffffffffffffffff166112c184610672565b73ffffffffffffffffffffffffffffffffffffffff16145b91505092915050565b8273ffffffffffffffffffffffffffffffffffffffff166113028261095b565b73ffffffffffffffffffffffffffffffffffffffff1614611358576040517f08c379a000000000000000000000000000000000000000000000000000000000815260040161134f90612ce1565b60405180910390fd5b600073ffffffffffffffffffffffffffffffffffffffff168273ffffffffffffffffffffffffffffffffffffffff16036113c7576040517f08c379a00000000000000000000000000000000000000000000000000000000081526004016113be90612d73565b60405180910390fd5b6113d48383836001611924565b8273ffffffffffffffffffffffffffffffffffffffff166113f48261095b565b73ffffffffffffffffffffffffffffffffffffffff161461144a576040517f08c379a000000000000000000000000000000000000000000000000000000000815260040161144190612ce1565b60405180910390fd5b6004600082815260200190815260200160002060006101000a81549073ffffffffffffffffffffffffffffffffffffffff02191690556001600360008573ffffffffffffffffffffffffffffffffffffffff1673ffffffffffffffffffffffffffffffffffffffff168152602001908152602001600020600082825403925050819055506001600360008473ffffffffffffffffffffffffffffffffffffffff1673ffffffffffffffffffffffffffffffffffffffff16815260200190815260200160002060008282540192505081905550816002600083815260200190815260200160002060006101000a81548173ffffffffffffffffffffffffffffffffffffffff021916908373ffffffffffffffffffffffffffffffffffffffff160217905550808273ffffffffffffffffffffffffffffffffffffffff168473ffffffffffffffffffffffffffffffffffffffff167fddf252ad1be2c89b69c2b068fc378daa952ba7f163c4a11628f55a4df523b3ef60405160405180910390a46115d6838383600161192a565b505050565b60006002600083815260200190815260200160002060009054906101000a900473ffffffffffffffffffffffffffffffffffffffff169050919050565b611632828260405180602001604052806000815250611930565b5050565b8173ffffffffffffffffffffffffffffffffffffffff168373ffffffffffffffffffffffffffffffffffffffff16036116a4576040517f08c379a000000000000000000000000000000000000000000000000000000000815260040161169b90612ddf565b60405180910390fd5b80600560008573ffffffffffffffffffffffffffffffffffffffff1673ffffffffffffffffffffffffffffffffffffffff16815260200190815260200160002060008473ffffffffffffffffffffffffffffffffffffffff1673ffffffffffffffffffffffffffffffffffffffff16815260200190815260200160002060006101000a81548160ff0219169083151502179055508173ffffffffffffffffffffffffffffffffffffffff168373ffffffffffffffffffffffffffffffffffffffff167f17307eab39ab6107e8899845ad3d59bd9653f200f220920489ca2b5937696c31836040516117959190611fb4565b60405180910390a3505050565b6117ad8484846112e2565b6117b98484848461198b565b6117f8576040517f08c379a00000000000000000000000000000000000000000000000000000000081526004016117ef90612e71565b60405180910390fd5b50505050565b606060405180602001604052806000815250905090565b60606000600161182484611b12565b01905060008167ffffffffffffffff811115611843576118426124b3565b5b6040519080825280601f01601f1916602001820160405280156118755781602001600182028036833780820191505090505b509050600082602001820190505b6001156118d8578080600190039150507f3031323334353637383961626364656600000000000000000000000000000000600a86061a8153600a85816118cc576118cb612e91565b5b04945060008503611883575b819350505050919050565b60008073ffffffffffffffffffffffffffffffffffffffff16611905836115db565b73ffffffffffffffffffffffffffffffffffffffff1614159050919050565b50505050565b50505050565b61193a8383611c65565b611947600084848461198b565b611986576040517f08c379a000000000000000000000000000000000000000000000000000000000815260040161197d90612e71565b60405180910390fd5b505050565b60006119ac8473ffffffffffffffffffffffffffffffffffffffff16611e82565b15611b05578373ffffffffffffffffffffffffffffffffffffffff1663150b7a026119d561118c565b8786866040518563ffffffff1660e01b81526004016119f79493929190612f15565b6020604051808303816000875af1925050508015611a3357506040513d601f19601f82011682018060405250810190611a309190612f76565b60015b611ab5573d8060008114611a63576040519150601f19603f3d011682016040523d82523d6000602084013e611a68565b606091505b506000815103611aad576040517f08c379a0000000000000000000000000000000000000000000000000000000008152600401611aa490612e71565b60405180910390fd5b805181602001fd5b63150b7a0260e01b7bffffffffffffffffffffffffffffffffffffffffffffffffffffffff1916817bffffffffffffffffffffffffffffffffffffffffffffffffffffffff191614915050611b0a565b600190505b949350505050565b600080600090507a184f03e93ff9f4daa797ed6e38ed64bf6a1f0100000000000000008310611b70577a184f03e93ff9f4daa797ed6e38ed64bf6a1f0100000000000000008381611b6657611b65612e91565b5b0492506040810190505b6d04ee2d6d415b85acef81000000008310611bad576d04ee2d6d415b85acef81000000008381611ba357611ba2612e91565b5b0492506020810190505b662386f26fc100008310611bdc57662386f26fc100008381611bd257611bd1612e91565b5b0492506010810190505b6305f5e1008310611c05576305f5e1008381611bfb57611bfa612e91565b5b0492506008810190505b6127108310611c2a576127108381611c2057611c1f612e91565b5b0492506004810190505b60648310611c4d5760648381611c4357611c42612e91565b5b0492506002810190505b600a8310611c5c576001810190505b80915050919050565b600073ffffffffffffffffffffffffffffffffffffffff168273ffffffffffffffffffffffffffffffffffffffff1603611cd4576040517f08c379a0000000000000000000000000000000000000000000000000000000008152600401611ccb90612fef565b60405180910390fd5b611cdd816118e3565b15611d1d576040517f08c379a0000000000000000000000000000000000000000000000000000000008152600401611d149061305b565b60405180910390fd5b611d2b600083836001611924565b611d34816118e3565b15611d74576040517f08c379a0000000000000000000000000000000000000000000000000000000008152600401611d6b9061305b565b60405180910390fd5b6001600360008473ffffffffffffffffffffffffffffffffffffffff1673ffffffffffffffffffffffffffffffffffffffff16815260200190815260200160002060008282540192505081905550816002600083815260200190815260200160002060006101000a81548173ffffffffffffffffffffffffffffffffffffffff021916908373ffffffffffffffffffffffffffffffffffffffff160217905550808273ffffffffffffffffffffffffffffffffffffffff16600073ffffffffffffffffffffffffffffffffffffffff167fddf252ad1be2c89b69c2b068fc378daa952ba7f163c4a11628f55a4df523b3ef60405160405180910390a4611e7e60008383600161192a565b5050565b6000808273ffffffffffffffffffffffffffffffffffffffff163b119050919050565b60405180610100016040528060608152602001600073ffffffffffffffffffffffffffffffffffffffff1681526020016000815260200160008152602001600081526020016000815260200160008152602001600081525090565b6000604051905090565b600080fd5b600080fd5b60007fffffffff0000000000000000000000000000000000000000000000000000000082169050919050565b611f4981611f14565b8114611f5457600080fd5b50565b600081359050611f6681611f40565b92915050565b600060208284031215611f8257611f81611f0a565b5b6000611f9084828501611f57565b91505092915050565b60008115159050919050565b611fae81611f99565b82525050565b6000602082019050611fc96000830184611fa5565b92915050565b600081519050919050565b600082825260208201905092915050565b60005b83811015612009578082015181840152602081019050611fee565b60008484015250505050565b6000601f19601f8301169050919050565b600061203182611fcf565b61203b8185611fda565b935061204b818560208601611feb565b61205481612015565b840191505092915050565b600060208201905081810360008301526120798184612026565b905092915050565b6000819050919050565b61209481612081565b811461209f57600080fd5b50565b6000813590506120b18161208b565b92915050565b6000602082840312156120cd576120cc611f0a565b5b60006120db848285016120a2565b91505092915050565b600073ffffffffffffffffffffffffffffffffffffffff82169050919050565b600061210f826120e4565b9050919050565b61211f81612104565b82525050565b600060208201905061213a6000830184612116565b92915050565b61214981612104565b811461215457600080fd5b50565b60008135905061216681612140565b92915050565b6000806040838503121561218357612182611f0a565b5b600061219185828601612157565b92505060206121a2858286016120a2565b9150509250929050565b6121b581612081565b82525050565b60006020820190506121d060008301846121ac565b92915050565b6000806000606084860312156121ef576121ee611f0a565b5b60006121fd86828701612157565b935050602061220e86828701612157565b925050604061221f868287016120a2565b9150509250925092565b6000819050919050565b61223c81612229565b82525050565b600061010082019050818103600083015261225d818b612026565b905061226c602083018a612116565b6122796040830189612233565b6122866060830188612233565b6122936080830187612233565b6122a060a08301866121ac565b6122ad60c08301856121ac565b6122ba60e08301846121ac565b9998505050505050505050565b6000602082840312156122dd576122dc611f0a565b5b60006122eb84828501612157565b91505092915050565b600082825260208201905092915050565b600061231082611fcf565b61231a81856122f4565b935061232a818560208601611feb565b61233381612015565b840191505092915050565b61234781612104565b82525050565b61235681612229565b82525050565b61236581612081565b82525050565b60006101008301600083015184820360008601526123898282612305565b915050602083015161239e602086018261233e565b5060408301516123b1604086018261234d565b5060608301516123c4606086018261234d565b5060808301516123d7608086018261234d565b5060a08301516123ea60a086018261235c565b5060c08301516123fd60c086018261235c565b5060e083015161241060e086018261235c565b508091505092915050565b60006020820190508181036000830152612435818461236b565b905092915050565b61244681611f99565b811461245157600080fd5b50565b6000813590506124638161243d565b92915050565b600080604083850312156124805761247f611f0a565b5b600061248e85828601612157565b925050602061249f85828601612454565b9150509250929050565b600080fd5b600080fd5b7f4e487b7100000000000000000000000000000000000000000000000000000000600052604160045260246000fd5b6124eb82612015565b810181811067ffffffffffffffff8211171561250a576125096124b3565b5b80604052505050565b600061251d611f00565b905061252982826124e2565b919050565b600067ffffffffffffffff821115612549576125486124b3565b5b61255282612015565b9050602081019050919050565b82818337600083830152505050565b600061258161257c8461252e565b612513565b90508281526020810184848401111561259d5761259c6124ae565b5b6125a884828561255f565b509392505050565b600082601f8301126125c5576125c46124a9565b5b81356125d584826020860161256e565b91505092915050565b600080600080608085870312156125f8576125f7611f0a565b5b600061260687828801612157565b945050602061261787828801612157565b9350506040612628878288016120a2565b925050606085013567ffffffffffffffff81111561264957612648611f0f565b5b612655878288016125b0565b91505092959194509250565b600081519050919050565b600082825260208201905092915050565b6000819050602082019050919050565b60006101008301600083015184820360008601526126ab8282612305565b91505060208301516126c0602086018261233e565b5060408301516126d3604086018261234d565b5060608301516126e6606086018261234d565b5060808301516126f9608086018261234d565b5060a083015161270c60a086018261235c565b5060c083015161271f60c086018261235c565b5060e083015161273260e086018261235c565b508091505092915050565b6000612749838361268d565b905092915050565b6000602082019050919050565b600061276982612661565b612773818561266c565b9350836020820285016127858561267d565b8060005b858110156127c157848403895281516127a2858261273d565b94506127ad83612751565b925060208a01995050600181019050612789565b50829750879550505050505092915050565b600060208201905081810360008301526127ed818461275e565b905092915050565b6000806040838503121561280c5761280b611f0a565b5b600061281a85828601612157565b925050602061282b85828601612157565b9150509250929050565b7f4e487b7100000000000000000000000000000000000000000000000000000000600052602260045260246000fd5b6000600282049050600182168061287c57607f821691505b60208210810361288f5761288e612835565b5b50919050565b7f4552433732313a20617070726f76616c20746f2063757272656e74206f776e6560008201527f7200000000000000000000000000000000000000000000000000000000000000602082015250565b60006128f1602183611fda565b91506128fc82612895565b604082019050919050565b60006020820190508181036000830152612920816128e4565b9050919050565b7f4552433732313a20617070726f76652063616c6c6572206973206e6f7420746f60008201527f6b656e206f776e6572206f7220617070726f76656420666f7220616c6c000000602082015250565b6000612983603d83611fda565b915061298e82612927565b604082019050919050565b600060208201905081810360008301526129b281612976565b9050919050565b7f4552433732313a2063616c6c6572206973206e6f7420746f6b656e206f776e6560008201527f72206f7220617070726f76656400000000000000000000000000000000000000602082015250565b6000612a15602d83611fda565b9150612a20826129b9565b604082019050919050565b60006020820190508181036000830152612a4481612a08565b9050919050565b7f4552433732313a20696e76616c696420746f6b656e2049440000000000000000600082015250565b6000612a81601883611fda565b9150612a8c82612a4b565b602082019050919050565b60006020820190508181036000830152612ab081612a74565b9050919050565b7f4552433732313a2061646472657373207a65726f206973206e6f74206120766160008201527f6c6964206f776e65720000000000000000000000000000000000000000000000602082015250565b6000612b13602983611fda565b9150612b1e82612ab7565b604082019050919050565b60006020820190508181036000830152612b4281612b06565b9050919050565b7f4e487b7100000000000000000000000000000000000000000000000000000000600052601160045260246000fd5b6000612b8382612081565b9150612b8e83612081565b9250828203905081811115612ba657612ba5612b49565b5b92915050565b7f4e487b7100000000000000000000000000000000000000000000000000000000600052603260045260246000fd5b6000612be682612081565b9150612bf183612081565b9250828201905080821115612c0957612c08612b49565b5b92915050565b600081905092915050565b6000612c2582611fcf565b612c2f8185612c0f565b9350612c3f818560208601611feb565b80840191505092915050565b6000612c578285612c1a565b9150612c638284612c1a565b91508190509392505050565b7f4552433732313a207472616e736665722066726f6d20696e636f72726563742060008201527f6f776e6572000000000000000000000000000000000000000000000000000000602082015250565b6000612ccb602583611fda565b9150612cd682612c6f565b604082019050919050565b60006020820190508181036000830152612cfa81612cbe565b9050919050565b7f4552433732313a207472616e7366657220746f20746865207a65726f2061646460008201527f7265737300000000000000000000000000000000000000000000000000000000602082015250565b6000612d5d602483611fda565b9150612d6882612d01565b604082019050919050565b60006020820190508181036000830152612d8c81612d50565b9050919050565b7f4552433732313a20617070726f766520746f2063616c6c657200000000000000600082015250565b6000612dc9601983611fda565b9150612dd482612d93565b602082019050919050565b60006020820190508181036000830152612df881612dbc565b9050919050565b7f4552433732313a207472616e7366657220746f206e6f6e20455243373231526560008201527f63656976657220696d706c656d656e7465720000000000000000000000000000602082015250565b6000612e5b603283611fda565b9150612e6682612dff565b604082019050919050565b60006020820190508181036000830152612e8a81612e4e565b9050919050565b7f4e487b7100000000000000000000000000000000000000000000000000000000600052601260045260246000fd5b600081519050919050565b600082825260208201905092915050565b6000612ee782612ec0565b612ef18185612ecb565b9350612f01818560208601611feb565b612f0a81612015565b840191505092915050565b6000608082019050612f2a6000830187612116565b612f376020830186612116565b612f4460408301856121ac565b8181036060830152612f568184612edc565b905095945050505050565b600081519050612f7081611f40565b92915050565b600060208284031215612f8c57612f8b611f0a565b5b6000612f9a84828501612f61565b91505092915050565b7f4552433732313a206d696e7420746f20746865207a65726f2061646472657373600082015250565b6000612fd9602083611fda565b9150612fe482612fa3565b602082019050919050565b6000602082019050818103600083015261300881612fcc565b9050919050565b7f4552433732313a20746f6b656e20616c7265616479206d696e74656400000000600082015250565b6000613045601c83611fda565b91506130508261300f565b602082019050919050565b6000602082019050818103600083015261307481613038565b905091905056fea2646970667358221220e4fc497e00545aa29e3173bc96fbda682619db849da47b7e2afbea1eb4d0b88064736f6c63430008120033",
  "linkReferences": {},
  "deployedLinkReferences": {}
}